{
  "contractName": "MyContract",
  "abi": [
    {
      "anonymous": false,
      "inputs": [
        {
          "indexed": false,
          "internalType": "address",
          "name": "minter",
          "type": "address"
        },
        {
          "indexed": false,
          "internalType": "uint256",
          "name": "mintAmount",
          "type": "uint256"
        },
        {
          "indexed": false,
          "internalType": "uint256",
          "name": "mintTokens",
          "type": "uint256"
        }
      ],
      "name": "Mint",
      "type": "event"
    },
    {
      "anonymous": false,
      "inputs": [
        {
          "indexed": true,
          "internalType": "address",
          "name": "previousOwner",
          "type": "address"
        },
        {
          "indexed": true,
          "internalType": "address",
          "name": "newOwner",
          "type": "address"
        }
      ],
      "name": "OwnershipTransferred",
      "type": "event"
    },
    {
      "anonymous": false,
      "inputs": [
        {
          "indexed": false,
          "internalType": "address",
          "name": "redeemer",
          "type": "address"
        },
        {
          "indexed": false,
          "internalType": "uint256",
          "name": "redeemAmount",
          "type": "uint256"
        },
        {
          "indexed": false,
          "internalType": "uint256",
          "name": "redeemTokens",
          "type": "uint256"
        }
      ],
      "name": "Redeem",
      "type": "event"
    },
    {
      "inputs": [
        {
          "internalType": "address",
          "name": "",
          "type": "address"
        },
        {
          "internalType": "address",
          "name": "",
          "type": "address"
        }
      ],
      "name": "accountPastEarnings",
      "outputs": [
        {
          "internalType": "uint256",
          "name": "",
          "type": "uint256"
        }
      ],
      "stateMutability": "view",
      "type": "function"
    },
    {
      "inputs": [
        {
          "internalType": "address",
          "name": "",
          "type": "address"
        },
        {
          "internalType": "address",
          "name": "",
          "type": "address"
        }
      ],
      "name": "accountTokens",
      "outputs": [
        {
          "internalType": "uint256",
          "name": "",
          "type": "uint256"
        }
      ],
      "stateMutability": "view",
      "type": "function"
    },
    {
      "inputs": [
        {
          "internalType": "address",
          "name": "",
          "type": "address"
        },
        {
          "internalType": "address",
          "name": "",
          "type": "address"
        }
      ],
      "name": "accountUnderlying",
      "outputs": [
        {
          "internalType": "uint256",
          "name": "",
          "type": "uint256"
        }
      ],
      "stateMutability": "view",
      "type": "function"
    },
    {
      "inputs": [],
      "name": "owner",
      "outputs": [
        {
          "internalType": "address",
          "name": "",
          "type": "address"
        }
      ],
      "stateMutability": "view",
      "type": "function"
    },
    {
      "inputs": [],
      "name": "ownerFeeExp",
      "outputs": [
        {
          "internalType": "uint256",
          "name": "",
          "type": "uint256"
        }
      ],
      "stateMutability": "view",
      "type": "function"
    },
    {
      "inputs": [],
      "name": "renounceOwnership",
      "outputs": [],
      "stateMutability": "nonpayable",
      "type": "function"
    },
    {
      "inputs": [
        {
          "internalType": "address",
          "name": "newOwner",
          "type": "address"
        }
      ],
      "name": "transferOwnership",
      "outputs": [],
      "stateMutability": "nonpayable",
      "type": "function"
    },
    {
      "stateMutability": "payable",
      "type": "receive"
    },
    {
      "inputs": [],
      "name": "initialize",
      "outputs": [],
      "stateMutability": "nonpayable",
      "type": "function"
    },
    {
      "inputs": [
        {
          "internalType": "uint256",
          "name": "mintAmount",
          "type": "uint256"
        },
        {
          "internalType": "contract EIP20NonStandard",
          "name": "token",
          "type": "address"
        },
        {
          "internalType": "contract CErc20",
          "name": "cErc20",
          "type": "address"
        }
      ],
      "name": "mint",
      "outputs": [
        {
          "internalType": "uint256",
          "name": "",
          "type": "uint256"
        }
      ],
      "stateMutability": "nonpayable",
      "type": "function"
    },
    {
      "inputs": [
        {
          "internalType": "uint256",
          "name": "redeemAmount",
          "type": "uint256"
        },
        {
          "internalType": "contract EIP20NonStandard",
          "name": "token",
          "type": "address"
        },
        {
          "internalType": "contract CErc20",
          "name": "cErc20",
          "type": "address"
        }
      ],
      "name": "redeemUnderlying",
      "outputs": [
        {
          "internalType": "uint256",
          "name": "",
          "type": "uint256"
        }
      ],
      "stateMutability": "nonpayable",
      "type": "function"
    },
    {
      "inputs": [
        {
          "internalType": "contract CErc20",
          "name": "cErc20",
          "type": "address"
        }
      ],
      "name": "balances",
      "outputs": [
        {
          "internalType": "uint256",
          "name": "underlying",
          "type": "uint256"
        },
        {
          "internalType": "uint256",
          "name": "cTokens",
          "type": "uint256"
        },
        {
          "internalType": "uint256",
          "name": "totalBalance",
          "type": "uint256"
        },
        {
          "internalType": "uint256",
          "name": "currentEarnings",
          "type": "uint256"
        }
      ],
      "stateMutability": "nonpayable",
      "type": "function"
    },
    {
      "inputs": [
        {
          "internalType": "address",
          "name": "_cToken",
          "type": "address"
        }
      ],
      "name": "pastEarnings",
      "outputs": [
        {
          "internalType": "uint256",
          "name": "",
          "type": "uint256"
        }
      ],
      "stateMutability": "view",
      "type": "function"
    },
    {
      "inputs": [
        {
          "internalType": "contract CErc20",
          "name": "cErc20",
          "type": "address"
        }
      ],
      "name": "supplyRatePerBlock",
      "outputs": [
        {
          "internalType": "uint256",
          "name": "",
          "type": "uint256"
        }
      ],
      "stateMutability": "view",
      "type": "function"
    },
    {
      "inputs": [
        {
          "internalType": "address payable",
          "name": "_cEth",
          "type": "address"
        }
      ],
      "name": "mintEth",
      "outputs": [
        {
          "internalType": "bool",
          "name": "",
          "type": "bool"
        }
      ],
      "stateMutability": "payable",
      "type": "function"
    },
    {
      "inputs": [
        {
          "internalType": "uint256",
          "name": "redeemAmount",
          "type": "uint256"
        },
        {
          "internalType": "contract CEther",
          "name": "cEth",
          "type": "address"
        }
      ],
      "name": "redeemUnderlyingEth",
      "outputs": [
        {
          "internalType": "uint256",
          "name": "",
          "type": "uint256"
        }
      ],
      "stateMutability": "nonpayable",
      "type": "function"
    },
    {
      "inputs": [
        {
          "internalType": "contract CEther",
          "name": "cEth",
          "type": "address"
        }
      ],
      "name": "balancesEth",
      "outputs": [
        {
          "internalType": "uint256",
          "name": "underlying",
          "type": "uint256"
        },
        {
          "internalType": "uint256",
          "name": "cTokens",
          "type": "uint256"
        },
        {
          "internalType": "uint256",
          "name": "totalBalance",
          "type": "uint256"
        },
        {
          "internalType": "uint256",
          "name": "currentEarnings",
          "type": "uint256"
        }
      ],
      "stateMutability": "nonpayable",
      "type": "function"
    },
    {
      "inputs": [
        {
          "internalType": "contract CEther",
          "name": "cEth",
          "type": "address"
        }
      ],
      "name": "supplyRatePerBlockEth",
      "outputs": [
        {
          "internalType": "uint256",
          "name": "",
          "type": "uint256"
        }
      ],
      "stateMutability": "view",
      "type": "function"
    },
    {
      "inputs": [
        {
          "internalType": "contract CErc20",
          "name": "cErc20",
          "type": "address"
        }
      ],
      "name": "cErc20Details",
      "outputs": [
        {
          "internalType": "uint256",
          "name": "tokens",
          "type": "uint256"
        },
        {
          "internalType": "uint256",
          "name": "underlying",
          "type": "uint256"
        }
      ],
      "stateMutability": "nonpayable",
      "type": "function"
    },
    {
      "inputs": [
        {
          "internalType": "contract CEther",
          "name": "cEth",
          "type": "address"
        }
      ],
      "name": "cEthDetails",
      "outputs": [
        {
          "internalType": "uint256",
          "name": "tokens",
          "type": "uint256"
        },
        {
          "internalType": "uint256",
          "name": "underlying",
          "type": "uint256"
        }
      ],
      "stateMutability": "nonpayable",
      "type": "function"
    }
  ],
  "bytecode": "0x608060405234801561001057600080fd5b50611c5f806100206000396000f3fe6080604052600436106101485760003560e01c80638bf78f5a116100c0578063dd976e7911610074578063f2f82a9b11610059578063f2f82a9b14610414578063f2fde38b1461044f578063fa193f91146104825761014f565b8063dd976e79146103e1578063f0ce525d146101c75761014f565b8063aaeb99e0116100a5578063aaeb99e014610301578063d0909fa414610365578063da39b3e7146103a05761014f565b80638bf78f5a146103015780638da5cb5b146103345761014f565b80635f2b7bfa116101175780637ceb74d0116100fc5780637ceb74d0146102725780638129fc1c146102b35780638642af03146102c85761014f565b80635f2b7bfa14610220578063715018a61461025b5761014f565b8063120ee691146101545780631d82cb34146101a057806327e235e3146101c75780634ab83176146101545761014f565b3661014f57005b600080fd5b34801561016057600080fd5b506101876004803603602081101561017757600080fd5b50356001600160a01b03166104bc565b6040805192835260208301919091528051918290030190f35b3480156101ac57600080fd5b506101b56105d1565b60408051918252519081900360200190f35b3480156101d357600080fd5b506101fa600480360360208110156101ea57600080fd5b50356001600160a01b03166105d7565b604080519485526020850193909352838301919091526060830152519081900360800190f35b34801561022c57600080fd5b506101b56004803603604081101561024357600080fd5b506001600160a01b03813581169160200135166106ca565b34801561026757600080fd5b506102706106e7565b005b34801561027e57600080fd5b506101b56004803603606081101561029557600080fd5b508035906001600160a01b03602082013581169160400135166107a8565b3480156102bf57600080fd5b50610270610b32565b3480156102d457600080fd5b506101b5600480360360408110156102eb57600080fd5b50803590602001356001600160a01b0316610be7565b34801561030d57600080fd5b506101b56004803603602081101561032457600080fd5b50356001600160a01b0316610f31565b34801561034057600080fd5b50610349610f9e565b604080516001600160a01b039092168252519081900360200190f35b34801561037157600080fd5b506101b56004803603604081101561038857600080fd5b506001600160a01b0381358116916020013516610fad565b3480156103ac57600080fd5b506101b5600480360360608110156103c357600080fd5b508035906001600160a01b0360208201358116916040013516610fca565b3480156103ed57600080fd5b506101b56004803603602081101561040457600080fd5b50356001600160a01b031661133e565b34801561042057600080fd5b506101b56004803603604081101561043757600080fd5b506001600160a01b0381358116916020013516611366565b34801561045b57600080fd5b506102706004803603602081101561047257600080fd5b50356001600160a01b0316611383565b6104a86004803603602081101561049857600080fd5b50356001600160a01b031661149b565b604080519115158252519081900360200190f35b600080826001600160a01b03166370a08231306040518263ffffffff1660e01b815260040180826001600160a01b0316815260200191505060206040518083038186803b15801561050c57600080fd5b505afa158015610520573d6000803e3d6000fd5b505050506040513d602081101561053657600080fd5b5051604080517f3af9e66900000000000000000000000000000000000000000000000000000000815230600482015290519193506001600160a01b03851691633af9e669916024808201926020929091908290030181600087803b15801561059d57600080fd5b505af11580156105b1573d6000803e3d6000fd5b505050506040513d60208110156105c757600080fd5b5051919391925050565b609a5481565b3360008181526099602090815260408083206001600160a01b038616808552908352818420549484526097835281842081855283528184205482517fbd6d894d000000000000000000000000000000000000000000000000000000008152925190949384936106ac93670de0b6b3a7640000936106a693919263bd6d894d92600480830193919282900301818a87803b15801561067357600080fd5b505af1158015610687573d6000803e3d6000fd5b505050506040513d602081101561069d57600080fd5b505186906116ae565b9061170e565b9150838211156106c3576106c08285611750565b90505b9193509193565b609860209081526000928352604080842090915290825290205481565b6106ef611792565b6065546001600160a01b03908116911614610751576040805162461bcd60e51b815260206004820181905260248201527f4f776e61626c653a2063616c6c6572206973206e6f7420746865206f776e6572604482015290519081900360640190fd5b6065546040516000916001600160a01b0316907f8be0079c531659141344cd1fd0a4f28419497f9722a3daafe3b4186f6b6457e0908390a36065805473ffffffffffffffffffffffffffffffffffffffff19169055565b600081846107fd576040805162461bcd60e51b815260206004820152600e60248201527f696e76616c696420616d6f756e74000000000000000000000000000000000000604482015290519081900360640190fd5b600080600061080b866105d7565b9350935050925087821015610867576040805162461bcd60e51b815260206004820152601460248201527f696e73756666696369656e742062616c616e6365000000000000000000000000604482015290519081900360640190fd5b6000866001600160a01b03166370a08231306040518263ffffffff1660e01b815260040180826001600160a01b0316815260200191505060206040518083038186803b1580156108b657600080fd5b505afa1580156108ca573d6000803e3d6000fd5b505050506040513d60208110156108e057600080fd5b50516040805163852a12e360e01b8152600481018c905290519192506000916001600160a01b038a169163852a12e391602480830192602092919082900301818787803b15801561093057600080fd5b505af1158015610944573d6000803e3d6000fd5b505050506040513d602081101561095a57600080fd5b5051905080156109b1576040805162461bcd60e51b815260206004820152601b60248201527f756e6465726c79696e672072656465656d696e67206661696c65640000000000604482015290519081900360640190fd5b6000886001600160a01b03166370a08231306040518263ffffffff1660e01b815260040180826001600160a01b0316815260200191505060206040518083038186803b158015610a0057600080fd5b505afa158015610a14573d6000803e3d6000fd5b505050506040513d6020811015610a2a57600080fd5b505190506000610a3a8483611750565b90508a6001600160a01b031663a9059cbb338e6040518363ffffffff1660e01b815260040180836001600160a01b0316815260200182815260200192505050600060405180830381600087803b158015610a9357600080fd5b505af1158015610aa7573d6000803e3d6000fd5b50503360009081526097602090815260408083206001600160a01b038e16845290915290208054849003905550610ae290508c88878b611796565b60408051338152602081018e905280820183905290517fe5b754fb1abb7f01b499791d0b820ae3b6af3424ac1c59768edb53f4ec31a9299181900360600190a150909a9950505050505050505050565b600054610100900460ff1680610b4b5750610b4b61185b565b80610b59575060005460ff16155b610b945760405162461bcd60e51b815260040180806020018281038252602e815260200180611bfc602e913960400191505060405180910390fd5b600054610100900460ff16158015610bbf576000805460ff1961ff0019909116610100171660011790555b610bc7611861565b662386f26fc10000609a558015610be4576000805461ff00191690555b50565b60008183610c3c576040805162461bcd60e51b815260206004820152600e60248201527f696e76616c696420616d6f756e74000000000000000000000000000000000000604482015290519081900360640190fd5b6000806000610c4a866105d7565b9350935050925086821015610ca6576040805162461bcd60e51b815260206004820152601460248201527f696e73756666696369656e742062616c616e6365000000000000000000000000604482015290519081900360640190fd5b6000866001600160a01b03166370a08231306040518263ffffffff1660e01b815260040180826001600160a01b0316815260200191505060206040518083038186803b158015610cf557600080fd5b505afa158015610d09573d6000803e3d6000fd5b505050506040513d6020811015610d1f57600080fd5b50516040805163852a12e360e01b8152600481018b905290519192506000916001600160a01b038a169163852a12e391602480830192602092919082900301818787803b158015610d6f57600080fd5b505af1158015610d83573d6000803e3d6000fd5b505050506040513d6020811015610d9957600080fd5b505190508015610df0576040805162461bcd60e51b815260206004820152601b60248201527f756e6465726c79696e672072656465656d696e67206661696c65640000000000604482015290519081900360640190fd5b6000886001600160a01b03166370a08231306040518263ffffffff1660e01b815260040180826001600160a01b0316815260200191505060206040518083038186803b158015610e3f57600080fd5b505afa158015610e53573d6000803e3d6000fd5b505050506040513d6020811015610e6957600080fd5b505190506000610e798483611750565b60405190915033908c156108fc02908d906000818181858888f19350505050158015610ea9573d6000803e3d6000fd5b503360009081526097602090815260408083206001600160a01b038c168452909152902080548290039055610ee08b88878b611796565b60408051338152602081018d905280820183905290517fe5b754fb1abb7f01b499791d0b820ae3b6af3424ac1c59768edb53f4ec31a9299181900360600190a1509096505050505050505b92915050565b6000816001600160a01b031663ae9d70b06040518163ffffffff1660e01b815260040160206040518083038186803b158015610f6c57600080fd5b505afa158015610f80573d6000803e3d6000fd5b505050506040513d6020811015610f9657600080fd5b505192915050565b6065546001600160a01b031690565b609760209081526000928352604080842090915290825290205481565b604080517f23b872dd00000000000000000000000000000000000000000000000000000000815233600482015230602482015260448101859052905160009183916001600160a01b038616916323b872dd916064808301928792919082900301818387803b15801561103b57600080fd5b505af115801561104f573d6000803e3d6000fd5b50505050836001600160a01b031663095ea7b382876040518363ffffffff1660e01b815260040180836001600160a01b0316815260200182815260200192505050600060405180830381600087803b1580156110aa57600080fd5b505af11580156110be573d6000803e3d6000fd5b505050506000836001600160a01b03166370a08231306040518263ffffffff1660e01b815260040180826001600160a01b0316815260200191505060206040518083038186803b15801561111157600080fd5b505afa158015611125573d6000803e3d6000fd5b505050506040513d602081101561113b57600080fd5b5051604080517fa0712d680000000000000000000000000000000000000000000000000000000081526004810189905290519192506000916001600160a01b0387169163a0712d6891602480830192602092919082900301818787803b1580156111a457600080fd5b505af11580156111b8573d6000803e3d6000fd5b505050506040513d60208110156111ce57600080fd5b505190508015611225576040805162461bcd60e51b815260206004820152601460248201527f746f6b656e206d696e74696e67206661696c6564000000000000000000000000604482015290519081900360640190fd5b6000856001600160a01b03166370a08231306040518263ffffffff1660e01b815260040180826001600160a01b0316815260200191505060206040518083038186803b15801561127457600080fd5b505afa158015611288573d6000803e3d6000fd5b505050506040513d602081101561129e57600080fd5b5051905060006112ae8285611750565b3360008181526097602090815260408083206001600160a01b038b168085529083528184208054870190558484526099835281842090845282529182902080548e019055815192835282018c9052818101839052519192507f4c209b5fc8ad50758f13e2e1088ba56a560dff690a1c6fef26394f4c03821c4f919081900360600190a15090979650505050505050565b3360009081526098602090815260408083206001600160a01b03949094168352929052205490565b609960209081526000928352604080842090915290825290205481565b61138b611792565b6065546001600160a01b039081169116146113ed576040805162461bcd60e51b815260206004820181905260248201527f4f776e61626c653a2063616c6c6572206973206e6f7420746865206f776e6572604482015290519081900360640190fd5b6001600160a01b0381166114325760405162461bcd60e51b8152600401808060200182810382526026815260200180611bb56026913960400191505060405180910390fd5b6065546040516001600160a01b038084169216907f8be0079c531659141344cd1fd0a4f28419497f9722a3daafe3b4186f6b6457e090600090a36065805473ffffffffffffffffffffffffffffffffffffffff19166001600160a01b0392909216919091179055565b6000808290506000816001600160a01b03166370a08231306040518263ffffffff1660e01b815260040180826001600160a01b0316815260200191505060206040518083038186803b1580156114f057600080fd5b505afa158015611504573d6000803e3d6000fd5b505050506040513d602081101561151a57600080fd5b5051604080517f1249c58b00000000000000000000000000000000000000000000000000000000815290519192506001600160a01b03841691631249c58b913491600480830192600092919082900301818588803b15801561157b57600080fd5b505af115801561158f573d6000803e3d6000fd5b50505050506000826001600160a01b03166370a08231306040518263ffffffff1660e01b815260040180826001600160a01b0316815260200191505060206040518083038186803b1580156115e357600080fd5b505afa1580156115f7573d6000803e3d6000fd5b505050506040513d602081101561160d57600080fd5b50519050600061161d8284611750565b3360008181526097602090815260408083206001600160a01b038c1680855290835281842080548701905584845260998352818420908452825291829020805434908101909155825193845290830152818101839052519192507f4c209b5fc8ad50758f13e2e1088ba56a560dff690a1c6fef26394f4c03821c4f919081900360600190a150600195945050505050565b6000826116bd57506000610f2b565b828202828482816116ca57fe5b04146117075760405162461bcd60e51b8152600401808060200182810382526021815260200180611bdb6021913960400191505060405180910390fd5b9392505050565b600061170783836040518060400160405280601a81526020017f536166654d6174683a206469766973696f6e206279207a65726f000000000000815250611912565b600061170783836040518060400160405280601e81526020017f536166654d6174683a207375627472616374696f6e206f766572666c6f7700008152506119b4565b3390565b828411156117f4576117a88484611750565b3360008181526098602090815260408083206001600160a01b03871680855290835281842080549096019095559282526099815282822093825292909252902080548490039055611855565b8184111561182b573360009081526099602090815260408083206001600160a01b0385168452909152902080548590039055611855565b3360009081526098602090815260408083206001600160a01b038516845290915290208054850190555b50505050565b303b1590565b600054610100900460ff168061187a575061187a61185b565b80611888575060005460ff16155b6118c35760405162461bcd60e51b815260040180806020018281038252602e815260200180611bfc602e913960400191505060405180910390fd5b600054610100900460ff161580156118ee576000805460ff1961ff0019909116610100171660011790555b6118f6611a0e565b6118fe611aae565b8015610be4576000805461ff001916905550565b6000818361199e5760405162461bcd60e51b81526004018080602001828103825283818151815260200191508051906020019080838360005b8381101561196357818101518382015260200161194b565b50505050905090810190601f1680156119905780820380516001836020036101000a031916815260200191505b509250505060405180910390fd5b5060008385816119aa57fe5b0495945050505050565b60008184841115611a065760405162461bcd60e51b815260206004820181815283516024840152835190928392604490910191908501908083836000831561196357818101518382015260200161194b565b505050900390565b600054610100900460ff1680611a275750611a2761185b565b80611a35575060005460ff16155b611a705760405162461bcd60e51b815260040180806020018281038252602e815260200180611bfc602e913960400191505060405180910390fd5b600054610100900460ff161580156118fe576000805460ff1961ff0019909116610100171660011790558015610be4576000805461ff001916905550565b600054610100900460ff1680611ac75750611ac761185b565b80611ad5575060005460ff16155b611b105760405162461bcd60e51b815260040180806020018281038252602e815260200180611bfc602e913960400191505060405180910390fd5b600054610100900460ff16158015611b3b576000805460ff1961ff0019909116610100171660011790555b6000611b45611792565b6065805473ffffffffffffffffffffffffffffffffffffffff19166001600160a01b038316908117909155604051919250906000907f8be0079c531659141344cd1fd0a4f28419497f9722a3daafe3b4186f6b6457e0908290a3508015610be4576000805461ff00191690555056fe4f776e61626c653a206e6577206f776e657220697320746865207a65726f2061646472657373536166654d6174683a206d756c7469706c69636174696f6e206f766572666c6f77436f6e747261637420696e7374616e63652068617320616c7265616479206265656e20696e697469616c697a6564a26469706673582212208423c3cd5e405e07e06b86794bbe06703f4a97c2bbdb92dbc9e152a1ed4f788f64736f6c634300060c0033",
  "immutableReferences": {},
  "source": "// SPDX-License-Identifier: MIT\r\npragma solidity ^0.6.0;\r\n\r\nimport \"@openzeppelin/contracts-ethereum-package/contracts/access/Ownable.sol\";\r\nimport \"@openzeppelin/contracts-ethereum-package/contracts/math/SafeMath.sol\";\r\n\r\ninterface EIP20 {\r\n    function balanceOf(address owner) external view returns (uint256 balance);\r\n\r\n    function transfer(address dst, uint256 amount) external returns (bool success);\r\n\r\n    function transferFrom(\r\n        address src,\r\n        address dst,\r\n        uint256 amount\r\n    ) external returns (bool success);\r\n\r\n    function approve(address spender, uint256 amount) external returns (bool success);\r\n}\r\n\r\ninterface EIP20NonStandard {\r\n    function balanceOf(address owner) external view returns (uint256 balance);\r\n\r\n    function transfer(address dst, uint256 amount) external;\r\n\r\n    function transferFrom(\r\n        address src,\r\n        address dst,\r\n        uint256 amount\r\n    ) external;\r\n\r\n    function approve(address spender, uint256 amount) external;\r\n}\r\n\r\ninterface CErc20 {\r\n    function isCToken() external view returns (bool);\r\n\r\n    function mint(uint256) external returns (uint256);\r\n\r\n    function balanceOf(address owner) external view returns (uint256);\r\n\r\n    function balanceOfUnderlying(address owner) external returns (uint256);\r\n\r\n    function exchangeRateCurrent() external returns (uint256);\r\n\r\n    function exchangeRateStored() external view returns (uint256);\r\n\r\n    function redeem(uint256) external returns (uint256);\r\n\r\n    function redeemUnderlying(uint256) external returns (uint256);\r\n\r\n    function supplyRatePerBlock() external view returns (uint256);\r\n\r\n    function underlying() external view returns (address);\r\n}\r\n\r\ninterface CEther {\r\n    function mint() external payable;\r\n\r\n    function balanceOf(address owner) external view returns (uint256);\r\n\r\n    function balanceOfUnderlying(address owner) external returns (uint256);\r\n\r\n    function exchangeRateCurrent() external returns (uint256);\r\n\r\n    function redeem(uint256) external returns (uint256);\r\n\r\n    function redeemUnderlying(uint256) external returns (uint256);\r\n\r\n    function supplyRatePerBlock() external view returns (uint256);\r\n}\r\n\r\ncontract MyContract is OwnableUpgradeSafe {\r\n    using SafeMath for uint256;\r\n\r\n    /**\r\n     * @notice Event emitted when tokens are minted\r\n     */\r\n    event Mint(address minter, uint256 mintAmount, uint256 mintTokens);\r\n\r\n    /**\r\n     * @notice Event emitted when tokens are redeemed\r\n     */\r\n    event Redeem(address redeemer, uint256 redeemAmount, uint256 redeemTokens);\r\n\r\n    /**\r\n     * @notice Official record of cToken balances for each account\r\n     */\r\n    mapping(address => mapping(address => uint256)) public accountTokens;\r\n\r\n    mapping(address => mapping(address => uint256)) public accountPastEarnings;\r\n\r\n    /**\r\n     * @notice Official record of underlying balances for each account\r\n     */\r\n    mapping(address => mapping(address => uint256)) public accountUnderlying;\r\n\r\n    uint256 public ownerFeeExp; // * 1e16 (1%);\r\n\r\n    function initialize() public initializer {\r\n        OwnableUpgradeSafe.__Ownable_init();\r\n        ownerFeeExp = 10**16;\r\n    }\r\n\r\n    function mint(\r\n        uint256 mintAmount,\r\n        EIP20NonStandard token,\r\n        CErc20 cErc20\r\n    ) external returns (uint256) {\r\n        address _cErc20 = address(cErc20);\r\n        token.transferFrom(msg.sender, address(this), mintAmount);\r\n        token.approve(_cErc20, mintAmount);\r\n\r\n        uint256 preMintTokenBalance = cErc20.balanceOf(address(this));\r\n        uint256 mintError = cErc20.mint(mintAmount);\r\n\r\n        require(mintError == 0, \"token minting failed\");\r\n\r\n        uint256 postMintTokenBalance = cErc20.balanceOf(address(this));\r\n        uint256 mintedTokens = postMintTokenBalance.sub(preMintTokenBalance);\r\n        accountTokens[msg.sender][_cErc20] += mintedTokens;\r\n        accountUnderlying[msg.sender][_cErc20] += mintAmount;\r\n\r\n        emit Mint(msg.sender, mintAmount, mintedTokens);\r\n\r\n        return mintError;\r\n    }\r\n\r\n    function redeemUnderlying(\r\n        uint256 redeemAmount,\r\n        EIP20NonStandard token,\r\n        CErc20 cErc20\r\n    ) external returns (uint256) {\r\n        address _cErc20 = address(cErc20);\r\n        require(redeemAmount > 0, \"invalid amount\");\r\n\r\n        (uint256 deposit, , uint256 balance, uint256 earnings) = balances(cErc20);\r\n\r\n        require(balance >= redeemAmount, \"insufficient balance\");\r\n\r\n        uint256 preTokenBalance = cErc20.balanceOf(address(this));\r\n        uint256 redeemError = cErc20.redeemUnderlying(redeemAmount);\r\n\r\n        require(redeemError == 0, \"underlying redeeming failed\");\r\n\r\n        uint256 postTokenBalance = cErc20.balanceOf(address(this));\r\n        uint256 redeemedTokens = preTokenBalance.sub(postTokenBalance);\r\n\r\n        token.transfer(msg.sender, redeemAmount);\r\n\r\n        // First we update token values\r\n        accountTokens[msg.sender][_cErc20] -= redeemedTokens;\r\n\r\n        // Then update past earnings\r\n        updateEarnings(redeemAmount, deposit, earnings, _cErc20);\r\n\r\n        emit Redeem(msg.sender, redeemAmount, redeemedTokens);\r\n\r\n        return redeemError;\r\n    }\r\n\r\n    // https://compound.finance/docs#protocol-math\r\n    function balances(CErc20 cErc20)\r\n        public\r\n        returns (\r\n            uint256 underlying,\r\n            uint256 cTokens,\r\n            uint256 totalBalance,\r\n            uint256 currentEarnings\r\n        )\r\n    {\r\n        //EIP20 erc20 = EIP20(cErc20.underlying());\r\n        //uint256 decimals = erc20.decimals();\r\n        //uint256 cTokenDecimals = 8; // all cTokens have 8 decimal places\r\n        //uint256 mantissa = 10**(18 + decimals - cTokenDecimals);\r\n        underlying = accountUnderlying[msg.sender][address(cErc20)];\r\n        cTokens = accountTokens[msg.sender][address(cErc20)];\r\n        totalBalance = cTokens.mul(cErc20.exchangeRateCurrent()).div(10**18);\r\n        if (totalBalance > underlying) {\r\n            currentEarnings = totalBalance.sub(underlying);\r\n        }\r\n    }\r\n\r\n    function pastEarnings(address _cToken) public view returns (uint256) {\r\n        return accountPastEarnings[msg.sender][_cToken];\r\n    }\r\n\r\n    function supplyRatePerBlock(CErc20 cErc20) external view returns (uint256) {\r\n        return cErc20.supplyRatePerBlock();\r\n    }\r\n\r\n    /* ETHEREUM */\r\n\r\n    function mintEth(address payable _cEth) external payable returns (bool) {\r\n        CEther cEth = CEther(_cEth);\r\n\r\n        uint256 preMintTokenBalance = cEth.balanceOf(address(this));\r\n        cEth.mint{value: msg.value}();\r\n        uint256 postMintTokenBalance = cEth.balanceOf(address(this));\r\n\r\n        uint256 mintedTokens = postMintTokenBalance.sub(preMintTokenBalance);\r\n\r\n        // First we update token values\r\n        accountTokens[msg.sender][_cEth] += mintedTokens;\r\n\r\n        // Then we update underlying values\r\n        accountUnderlying[msg.sender][_cEth] += msg.value;\r\n\r\n        emit Mint(msg.sender, msg.value, mintedTokens);\r\n\r\n        return true;\r\n    }\r\n\r\n    function redeemUnderlyingEth(uint256 redeemAmount, CEther cEth) external returns (uint256) {\r\n        address _cEth = address(cEth);\r\n        require(redeemAmount > 0, \"invalid amount\");\r\n\r\n        (uint256 deposit, , uint256 balance, uint256 earnings) = balancesEth(cEth);\r\n\r\n        require(balance >= redeemAmount, \"insufficient balance\");\r\n\r\n        uint256 preTokenBalance = cEth.balanceOf(address(this));\r\n        uint256 redeemError = cEth.redeemUnderlying(redeemAmount);\r\n\r\n        require(redeemError == 0, \"underlying redeeming failed\");\r\n\r\n        uint256 postTokenBalance = cEth.balanceOf(address(this));\r\n        uint256 redeemedTokens = preTokenBalance.sub(postTokenBalance);\r\n\r\n        msg.sender.transfer(redeemAmount);\r\n\r\n        // First we update token values\r\n        accountTokens[msg.sender][_cEth] -= redeemedTokens;\r\n\r\n        // Then update past earnings\r\n        updateEarnings(redeemAmount, deposit, earnings, _cEth);\r\n\r\n        emit Redeem(msg.sender, redeemAmount, redeemedTokens);\r\n\r\n        return redeemError;\r\n    }\r\n\r\n    function updateEarnings(\r\n        uint256 redeemAmount,\r\n        uint256 deposit,\r\n        uint256 earnings,\r\n        address cToken\r\n    ) private {\r\n        if (redeemAmount > deposit) {\r\n            accountPastEarnings[msg.sender][cToken] += redeemAmount.sub(deposit);\r\n            accountUnderlying[msg.sender][cToken] -= deposit;\r\n        } else if (redeemAmount > earnings) {\r\n            accountUnderlying[msg.sender][cToken] -= redeemAmount;\r\n        } else {\r\n            accountPastEarnings[msg.sender][cToken] += redeemAmount;\r\n        }\r\n    }\r\n\r\n    function balancesEth(CEther cEth)\r\n        public\r\n        returns (\r\n            uint256 underlying,\r\n            uint256 cTokens,\r\n            uint256 totalBalance,\r\n            uint256 currentEarnings\r\n        )\r\n    {\r\n        underlying = accountUnderlying[msg.sender][address(cEth)];\r\n        cTokens = accountTokens[msg.sender][address(cEth)];\r\n        totalBalance = cTokens.mul(cEth.exchangeRateCurrent()).div(10**18);\r\n        if (totalBalance > underlying) {\r\n            currentEarnings = totalBalance.sub(underlying);\r\n        }\r\n    }\r\n\r\n    function supplyRatePerBlockEth(CEther cEth) public view returns (uint256) {\r\n        return cEth.supplyRatePerBlock();\r\n    }\r\n\r\n    /* ADMIN HELPERS */\r\n    function cErc20Details(CErc20 cErc20) public returns (uint256 tokens, uint256 underlying) {\r\n        tokens = cErc20.balanceOf(address(this));\r\n        underlying = cErc20.balanceOfUnderlying(address(this));\r\n    }\r\n\r\n    function cEthDetails(CEther cEth) public returns (uint256 tokens, uint256 underlying) {\r\n        tokens = cEth.balanceOf(address(this));\r\n        underlying = cEth.balanceOfUnderlying(address(this));\r\n    }\r\n\r\n    // This is needed to receive ETH when redeeming.\r\n    receive() external payable {}\r\n}\r\n",
  "sourcePath": "C:\\Users\\David\\Documents\\Projects\\compound2\\contracts\\MyContract.sol",
  "compiler": {
    "name": "solc",
    "version": "0.6.12+commit.27d51765.Emscripten.clang"
  },
  "schemaVersion": "3.2.0",
  "updatedAt": "2021-12-06T18:36:00.202Z",
  "devdoc": {
    "kind": "dev",
    "methods": {
      "owner()": {
        "details": "Returns the address of the current owner."
      },
      "renounceOwnership()": {
        "details": "Leaves the contract without owner. It will not be possible to call `onlyOwner` functions anymore. Can only be called by the current owner. NOTE: Renouncing ownership will leave the contract without an owner, thereby removing any functionality that is only available to the owner."
      },
      "transferOwnership(address)": {
        "details": "Transfers ownership of the contract to a new account (`newOwner`). Can only be called by the current owner."
      }
    },
    "version": 1
  },
  "userdoc": {
    "events": {
      "Mint(address,uint256,uint256)": {
        "notice": "Event emitted when tokens are minted"
      },
      "Redeem(address,uint256,uint256)": {
        "notice": "Event emitted when tokens are redeemed"
      }
    },
    "kind": "user",
    "methods": {
      "accountTokens(address,address)": {
        "notice": "Official record of cToken balances for each account"
      },
      "accountUnderlying(address,address)": {
        "notice": "Official record of underlying balances for each account"
      }
    },
    "version": 1
  }
}